:100000000C94CB000C94A6090C94E8000C944C07BB
:100010000C94E8000C94BB060C94E8000C94E800E7
:100020000C94E8000C94500F0C94E8000C94E80039
:100030000C94E8000C94E8000C94E8000C94E800A0
:100040000C941A0D0C94E8000C94E8000C94E80051
:100050000C94E8000C94E8000C94E8000C94F9006F
:100060000C94E8000C94E800350B380B3B0B3E0B6E
:10007000410B440B470B4A0B4D0B500B530B560BCC
:10008000F80EF80E000FF80EFC0EF80EFC0EF80E2F
:10009000F80EFC0EF80EFC0EF31249134913071369
:1000A000FC12101322132B1349134913491319136C
:1000B000616C61726D206F6E2100616C61726D20E8
:1000C0006F6666005365742064617900646F6E65C5
:1000D00000616C61726D20696E697400636C6F639E
:1000E0006B20696E697400737065616B657220695D
:1000F0006E697400626F6F737420696E6974007644
:10010000666420696E6974007475726E696E67202A
:100110006F6E20616C61726D7377007475726E69B9
:100120006E67206F6E20627574746F6E7300636CFF
:100130006F636B20696E697400210077616B657471
:10014000696D650057414B455245534554007A004F
:10015000623200623300623100736E6F6F7A650045
:100160000B10120F0D0E111303070809060A050CD8
:1001700004FC60DAF266B6BEE0FEE6FA3E1A7ADE0B
:100180008EF62E6078AE1CAA2A3ACEF30AB61E3836
:1001900038B86E76DA0011241FBECFEFD4E0DEBF90
:1001A000CDBF12E0A0E0B1E0E2E6F8E202C00590C7
:1001B0000D92A234B107D9F712E0A2E4B2E001C077
:1001C0001D92A13FB107E1F70E941E120C942F145B
:1001D0000C940000789410924802109247022091EB
:1001E00047023091480228173907C8F30895A895A7
:1001F00008951F920F920FB60F9211242F933F93E1
:100200004F935F936F937F938F939F93AF93BF931E
:10021000EF93FF9300B605FE27C080915402811131
:1002200041C05B9A85B1877D85B95E988CB58F7B1F
:100230008CBD80915202882361F06091EA0285E0D2
:1002400090E00E9421146091F00286E090E00E940C
:10025000211461E08EE491E00E94061115BC109219
:10026000DF021092680019C0809154028823D1F0F7
:1002700080915202882361F06091EA0285E090E06B
:100280000E9421146091F00286E090E00E94211407
:1002900061E084E491E00E940611E0915602F09141
:1002A00057020995FF91EF91BF91AF919F918F9167
:1002B0007F916F915F914F913F912F910F900FBE62
:1002C0000F901F90189581E0809354025B9A8CB533
:1002D0008F7B8CBD85B1877D85B95E9815BC1092EA
:1002E000DF021092680085B1897F85B98BB18F7C60
:1002F0008BB928988AB18F7C8AB920985A985298DD
:10030000E1E6F0E080E8808388E08083449A83B768
:10031000876083BF8895E1E6F0E080E88083108203
:10032000449808958EE284B988E48AB989E187B94E
:1003300084E38BB981E085B995E090936800809360
:100340006B0080E380936D000895CF93DF9384E08A
:1003500090E00E941914D8E16D2F0E945D139093D4
:100360005C0285E090E00E941914CCE36C2F0E949F
:100370005D139093EA0286E090E00E9419146C2FBE
:100380000E945D139093F00288E090E00E9419149F
:100390006C2F0E945D139093DE0287E090E00E9434
:1003A00019146D2F0E945D139093EC0281E090E090
:1003B0000E94191464E60E945D139093DD0282E0AE
:1003C00090E00E9419146DE00E945D139093EF027B
:1003D00083E090E00E9419148F718093E00291E015
:1003E00090935202E6EBF0E080818062808385E0AA
:1003F0008093B100909370007894DF91CF9108952D
:100400009C0183709927892B39F4C90164E670E057
:100410000E947713892B59F4C90160E971E00E94A9
:10042000771321E0892B09F020E0822F089581E0E5
:1004300008958AE090E00E9419148093DF0285B14C
:10044000866085B982E3809380008091DF028823F3
:1004500029F08091800080688093800088E18093FB
:1004600081008AEF90E090938700809386008091CE
:100470008600909187009695879590938900809348
:10048000880090938B0080938A0008950F931F93A8
:10049000CF93DF9300E810E0F8011082C1E8D0E0CC
:1004A0001882299A2A988AE090E00E94EA002A9A03
:1004B00029988AE090E00E94EA0085B1897F85B999
:1004C00082EBF801808388E18883DF91CF911F91CF
:1004D0000F910895CF93C62F9C0140E050E060E457
:1004E00072E48FE090E00E94C11330938700209364
:1004F00086008091860090918700969587959093CD
:100500008B0080938A0090938900809388006C2FE1
:10051000662309F1809181008260809381002FEF32
:1005200081EE94E0215080409040E1F700C000004F
:10053000809181008D7F8093810085B1897F85B90D
:100540002FEF81EE94E0215080409040E1F700C011
:1005500000006150DDCF85B1897F85B9CF910895C5
:100560008B3580F58F3110F48EE12DC0843210F47C
:1005700083E229C0893210F488E225C08E3210F45B
:100580008DE221C0833310F482E31DC0883310F460
:1005900087E319C08D3310F48CE315C0823410F456
:1005A00081E411C0873410F486E40DC08C3410F45B
:1005B0008BE409C0813510F480E505C0863510F460
:1005C00085E501C08AE587BD83E084BD81E085BD06
:1005D00084B5806884BD80916E00816080936E00D8
:1005E00078940895CF93C82F362F842F2AE0622F56
:1005F0000E945D13E92FF0E0EF58FE4FE491E09385
:10060000E902E82FF0E0EF58FE4FE491E093E802B2
:100610001092E702832F0E945D13E92FF0E0EF585C
:10062000FE4FE491E093E602E82FF0E0EF58FE4F32
:10063000E491E093E5021092E40280915502811169
:1006400022C08C2F90E00B966CE070E00E948B1320
:1006500001966AE070E00E948B13FC01EF58FE4F98
:10066000E491E093E302FB01EF58FE4F6491609345
:10067000E2028091E102CC3010F0816001C08E7FF7
:100680008093E10216C08C2F68E10E945D13892FD0
:10069000622F0E945D13E92FF0E0EF58FE4FE491C6
:1006A000E093E302E82FF0E0EF58FE4FE491E0938F
:1006B000E202CF9108958F929F92BF92DF92EF92C4
:1006C000FF920F931F93CF93DF93F0905C02E09023
:1006D000EA02D090F0028AE08093420210E00AE041
:1006E000CCE3D0E048E1842E912C8091450280FD3E
:1006F000CFC080914502811104C0809144028823BB
:1007000019F00093420205C080914202882309F447
:100710004BC08091450281FF4AC0109245021111E1
:1007200017C0F0905C02E090EA02D090F0024D2DEC
:100730006E2D8F2D0E94F2028091E20281608093E3
:10074000E2028091E30281608093E30211E02FC016
:10075000113089F44D2D6E2D8F2D0E94F202809163
:10076000E50281608093E5028091E60281608093DA
:10077000E60212E01CC0123089F44D2D6E2D8F2D33
:100780000E94F2028091E80281608093E8028091E9
:10079000E90281608093E90213E009C0F0925C02F3
:1007A000E092EA02D092F0021092EE0271C08091C3
:1007B000450282FD04C08091440282FF96CF1092D0
:1007C00045021130F9F48F2D90E00196B4010E949A
:1007D0008B13B82EF82E4D2D6E2D0E94F2028091B3
:1007E000E20281608093E2028091E3028160809363
:1007F000E302B0925C0260915C0284E090E00E94AF
:1008000021143DC0123001F58E2D90E00196BE01FD
:100810000E948B13B82EE82E4D2D682F8F2D0E942D
:10082000F2028091E50281608093E5028091E60208
:1008300081608093E6026091EA0285E090E00E9488
:100840002114B092EA021BC01330C9F48D2D90E040
:100850000196BE010E948B13B82ED82E482F6E2D04
:100860008F2D0E94F2028091E80281608093E8025D
:100870008091E90281608093E902B092F002809158
:10088000440282FF32CF8BE490E00E94EA002DCF39
:10089000DF91CF911F910F91FF90EF90DF90BF906C
:1008A0009F908F900895482F862F1092E902109202
:1008B000E8021092E7026AE00E945D13E92FF0E07F
:1008C000EF58FE4FE491E093E602E82FF0E0EF5896
:1008D000FE4FE491E093E5021092E402809155020C
:1008E000242F30E081111FC08091E1024C3048F08C
:1008F00081608093E102EAE8F1E0E491E093E802AC
:1009000008C0EBE7F1E0E491E093E8028E7F80938A
:10091000E102E7E8F1E0E491E093E902C9010B9616
:100920006CE070E004C0C901479668E170E00E9485
:100930008B1301966AE070E00E948B13FC01EF5864
:10094000FE4FE491E093E302FB01EF58FE4F649108
:100950006093E2020895CF92DF92EF92FF920F939D
:100960001F93CF93DF93F090EC02E090DE028AE0D9
:1009700080934202C0E0DAE05CE3C52ED12C08E1AE
:1009800010E08091450280FDA7C080914502811151
:1009900004C080914402882319F0D09342021EC003
:1009A0008091420281111AC01092EE02F092EC0284
:1009B000E092DE026091EC0287E090E00E94211458
:1009C0006091DE0288E090E0DF91CF911F910F915E
:1009D000FF90EF90DF90CF900C942114809145020E
:1009E00081FF39C010924502C11110C06E2D8F2DAC
:1009F0000E9453048091E20281608093E202809120
:100A0000E30281608093E302C1E025C0C13081F43C
:100A10006E2D8F2D0E9453048091E502816080939A
:100A2000E5028091E60281608093E602C2E013C095
:100A3000F092EC02E092DE026091EC0287E090E03E
:100A40000E9421146091DE0288E090E00E9421144F
:100A50001092EE0241C08091450282FD04C0809157
:100A6000440282FF8ECF10924502C130A9F48F2D2F
:100A700090E00196B8010E948B13F82E6E2D0E9413
:100A800053048091E20281608093E2028091E3024C
:100A900081608093E30217C0C230A9F48E2D90E0EC
:100AA0000196B6010E948B13E82E682F8F2D0E94AD
:100AB00053048091E50281608093E5028091E60213
:100AC00081608093E6028091440282FF5ACF8BE4DA
:100AD00090E00E94EA0055CFDF91CF911F910F91D6
:100AE000FF90EF90DF90CF900895282F862FEDE7AD
:100AF000F1E0E491E093E902EEE8F1E0E491E093C3
:100B0000E802EFE8F1E0E491E093E7026AE00E9496
:100B10005D13E92FF0E0EF58FE4FE491E093E60219
:100B2000E82FF0E0EF58FE4FE491E093E5021092D9
:100B3000E402822F992787FD909597FF03C0919536
:100B4000819591096AE070E00E948B13FC01EF58D7
:100B5000FE4FE491E093E302FB01EF58FE4F6491F6
:100B60006093E2028091E10227FD02C08D7F01C007
:100B700082608093E1020895AF92BF92CF92DF929C
:100B8000FF920F931F93CF93DF93F0900001D090CB
:100B900050028AE080934202C0E0DAE07CE3A72EB4
:100BA000B12C09E110E08091450280FD9BC080914D
:100BB0004502811104C080914402882319F0D0932A
:100BC000420204C080914202882351F18091450283
:100BD00081FF29C010924502C11110C06D2D8F2DCB
:100BE0000E9475058091E20281608093E20280910B
:100BF000E30281608093E302C1E015C0C13081F45B
:100C00006D2D8F2D0E9475058091E5028160809386
:100C1000E5028091E60281608093E602C2E003C0B3
:100C20001092EE025FC08091450282FD04C0809167
:100C3000440282FFB8CF10924502C13059F58F2D82
:100C4000992787FD90950D96B8010E948B1364EF4C
:100C5000F62EF80E6D2D8F2D0E9475058091E20203
:100C600081608093E2028091E30281608093E302DD
:100C7000F09200016F2D8DE090E00E94211481E040
:100C800091E00E9431118F2D992787FD90950E9448
:100C90006E111FC0C230E9F48D2D90E00196B501B0
:100CA0000E948B13C82ED82E682F8F2D0E94750599
:100CB0008091E50281608093E5028091E602816087
:100CC0008093E602C09250026C2D8EE090E00E946C
:100CD00021148091440282FF66CF8BE490E00E9451
:100CE000EA0061CFDF91CF911F910F91FF90DF90CC
:100CF000CF90BF90AF900895CF93DF931092E10211
:100D0000A2EEB2E0EC01E991CE01EE23C1F02FE9B1
:100D10002E0F2A3120F4F0E0E65EFE4F07C020EDF2
:100D20002E0F2A3030F4F0E0EF5BFE4FE491EC93AD
:100D300001C01C921196D2E0AA3EBD0719F7DF91BF
:100D4000CF91089588E592E090934A0280934902FA
:100D500061E089E591E00E9406118AE191E00E943C
:100D60007C0689E08093EE0288EE93E00E94EA0020
:100D70001092EE0208951F920F920FB60F92112457
:100D80002F933F934F935F936F937F938F939F9393
:100D9000AF93BF93EF93FF931092680078944D99AF
:100DA00020C08091460280FD21C08AE090E00E9430
:100DB000EA004D995DC00E9446028091ED028111CA
:100DC00025C0809146028160809346028091450251
:100DD00081608093450261E086E591E00E94061102
:100DE00005C0809146028E7F809346024C9939C09F
:100DF0008091460282FD3CC08AE090E00E94EA00B9
:100E00004C9936C082E08093430205C00E94A2063E
:100E10002FC04C9905C0809143028111FACF16C0B2
:100E20000E944602809146028B7F80934602809109
:100E3000ED028111EBCF61E083E591E00E940611A4
:100E40008091450284608093450212C080914602E1
:100E500084608093460280914402846080934402BF
:100E600007C010924402809146028B7F8093460215
:100E700085E080936800FF91EF91BF91AF919F91C2
:100E80008F917F916F915F914F913F912F910F9033
:100E90000FBE0F901F9018951F920F920FB60F92D2
:100EA00011242F933F934F935F936F937F938F936F
:100EB0009F93AF93BF93EF93FF9310926800789442
:100EC000189923C08091460281FD24C08AE090E0F9
:100ED0000E94EA0018991EC00E9446028091ED020D
:100EE000882319F00E94A20615C0809146028260F4
:100EF000809346028091450282608093450261E0C2
:100F000080E591E00E94061105C0809146028D7F28
:100F10008093460285E080936800FF91EF91BF9136
:100F2000AF919F918F917F916F915F914F913F9181
:100F30002F910F900FBE0F901F9018957F928F9258
:100F40009F92AF92BF92CF92DF92EF92FF920F9358
:100F50001F93CF93DF938AE08093420289E090E071
:100F60000E941914C82F20E0DAE01EE10AE5E5E549
:100F7000FE2EF0E5EF2EABE4DA2EB6E4CB2E81E4C4
:100F8000B82E9CE3A92E37E3932E42E3842E5DE234
:100F9000752E80914502811104C0809144028823FE
:100FA00019F0D093420204C080914202882331F1AB
:100FB0008091450280FD91C08091450281FF32C041
:100FC0001092450221111AC083E291E00E947C0632
:100FD0008C2F6D2F0E945D13E82FF0E0EF58FE4F2D
:100FE000849181608093E802E92FF0E0EF58FE4F92
:100FF000E491E160E093E90221E014C01092EE0276
:101000006C2F89E090E0DF91CF911F910F91FF90BD
:10101000EF90DF90CF90BF90AF909F908F907F9098
:101020000C9421148091450282FD04C080914402F9
:1010300082FFAFCF10924502213011F020E0A9CFFE
:10104000CB5FCC3508F0CEE18C2F6D2F0E945D1365
:10105000E82FF0E0EF58FE4F849181608093E80222
:10106000E92FF0E0EF58FE4FE491E160E093E902F0
:10107000CF3188F1C43210F483E203C0C93218F4CE
:1010800088E287BD86CFCE3210F477BC82CFC333DF
:1010900010F487BC7ECFC83310F497BC7ACFCD3321
:1010A00010F4A7BC76CFC23410F4B7BC72CFC734EB
:1010B00010F4C7BC6ECFCC3410F4D7BC6ACFC135A6
:1010C00010F4E7BC66CFC63510F4F7BC62CFCB3561
:1010D00011F007BD5ECF17BD5CCFDF91CF911F919F
:1010E0000F91FF90EF90DF90CF90BF90AF909F90C7
:1010F0008F907F9008950F931F93CF93DF938AE093
:10110000809342028AE090E00E941914182FC0E0F8
:101110000AE080914502811104C080914402882335
:1011200019F00093420204C080914202882369F1C1
:101130008091450280FD66C08091450281FF28C0F4
:1011400010924502C11121C0112351F08AE291E0B1
:101150000E947C068091E60281608093E60204C0D2
:1011600083E391E00E947C068091E7028160809396
:10117000E7028091E80281608093E8028091E902B1
:1011800081608093E902C1E003C01092EE023AC090
:101190008091450282FFBDCF10924502C13011F00F
:1011A000C0E0B7CFD1E01111D0E01D2FDD2351F009
:1011B0008AE291E00E947C068091E6028160809341
:1011C000E60204C083E391E00E947C068091E7027E
:1011D00081608093E7028091E80281608093E80259
:1011E0008091E90281608093E9026D2F8AE090E0AE
:1011F0000E9421140E94190261E080EA9FE00E948F
:101200006A0287CFDF91CF911F910F910895CF93FD
:10121000DF938AE0809342028BE090E00E941914F1
:1012200080935502C0E0DAE080914502811104C04C
:1012300080914402882319F0D093420204C0809127
:1012400042028823C9F08091450280FD39C0809117
:10125000450281FF14C010924502C1110DC080915A
:101260005502811103C08CE391E002C085E491E056
:101270000E947C06C1E003C01092EE0221C0809162
:10128000450282FFD1CF10924502C13011F0C0E07B
:10129000CBCF81E090915502911180E0809355026F
:1012A000811103C08CE391E002C085E491E00E94CB
:1012B0007C06609155028BE090E00E942114B4CF2F
:1012C000DF91CF9108954A9B23C08091EB02811159
:1012D0003CC081E08093EB0210924A0210924902D6
:1012E0008EE491E00E947C0689E08093EE0288EE15
:1012F00093E00E94EA006091DE028091EC020E947D
:10130000530488EE93E00E94EA001092EE020895E2
:101310008091EB028823C9F01092EB0210924A02EE
:10132000109249028091ED02882379F061E08AEB06
:1013300090E00E9406111092ED02809181008D7F55
:101340008093810085B1866085B908951F920F92C0
:101350000FB60F9211242F933F934F935F936F9388
:101360007F938F939F93AF93BF93CF93EF93FF930D
:1013700089E60E94F210C9B178948AE090E00E9458
:10138000EA0089B1C4702C2F30E0847090E02817F7
:10139000390711F40E946309FF91EF91CF91BF913A
:1013A000AF919F918F917F916F915F914F913F91FD
:1013B0002F910F900FBE0F901F901895809154029F
:1013C0008823E1F180E8809361001092610061E080
:1013D0008BE391E00E940611109254028FE39CE986
:1013E0000197F1F700C0000000B605FC27C00E947D
:1013F000920189E090E00E9419140E94B00281E5F8
:101400008CBD5B9843988AE090E00E941914809309
:10141000DF020E941902A8950E94630961E080E73B
:1014200093E00E946A0261E080EE96E00E946A0208
:1014300061E080EC9DE00E946A02A8950895CF9338
:10144000DF93811184C01092E10282E08093E40274
:101450008093E7028091550281112EC08091EF02A6
:101460002AE0622F0E946913E82FFF27E7FDF0951D
:10147000EF58FE4FE491E093E2028091EF02622F79
:101480000E946913E92FFF27E7FDF095EF58FE4F03
:10149000E491E093E3028091E002622F0E946913DD
:1014A000E82FFF27E7FDF095EF58FE4FE491E0931A
:1014B000E5028091E0022DC08091E0022AE0622FD7
:1014C0000E946913E82FFF27E7FDF095EF58FE4FC4
:1014D000E491E093E2028091E002622F0E9469139E
:1014E000E92FFF27E7FDF095EF58FE4FE491E093D9
:1014F000E3028091EF02622F0E946913E82FFF2719
:10150000E7FDF095EF58FE4FE491E093E5028091FE
:10151000EF02622F0E946913E92FFF27E7FDF09584
:10152000EF58FE4FE491E093E6028091DD022AE05D
:10153000622F0E946913E82FFF27E7FDF095EF580F
:10154000FE4FE491E093E8028091DD02C4C0813057
:1015500009F0CDC0C091EF02DD27C7FDD095E09125
:10156000DD02FF27E7FDF095E053F84F8091EF0291
:10157000833014F42C9631972091E0021092E80207
:101580001092E902332727FD30952F5F3F4F2E0F32
:101590003F1FCE01880F991F280F391FCF01969545
:1015A000879596958795280F391FCF0160E971E0DF
:1015B0000E947713260F371FCF0164E670E00E9468
:1015C0007713261B370B219646E04C9FC0014D9F99
:1015D000900D11246AE070E00E947713260F371FE8
:1015E000C90167E070E00E94771383309105B1F084
:1015F00034F48130910561F0029769F006C08530BE
:10160000910591F074F0069791F087E591E011C093
:101610008EE591E00EC085E691E00BC08DE691E08D
:1016200008C086E791E005C08FE791E002C086E838
:1016300091E00E947C0688EE93E00E94EA001092FE
:10164000E5021092E6021092E7028091EF029927DC
:1016500087FD9095A92FB92FFC013197EC30F1054A
:1016600048F5EC5CFF4F0C94E0138FE891E020C04C
:1016700083E991E01DC087E991E01AC08DE991E00E
:1016800017C083EA91E014C087EA91E011C08CEAA8
:1016900091E00EC081EB91E00BC087EB91E008C0B8
:1016A0008CEB91E005C082EC91E002C088EC91E007
:1016B0000E947C068091E0022AE0622F0E9469135A
:1016C000E82FFF27E7FDF095EF58FE4FE491E093F8
:1016D000E8028091E002622F0E946913E92FFF2740
:1016E000E7FDF095EF58FE4FE491E093E902DF91BA
:1016F000CF9108950F931F93CF93DF938AE0809348
:101700004202C0E0DAE011E004E680914502811176
:1017100004C080914402882319F0D093420205C08E
:1017200080914202882309F466C08091450280FDC1
:10173000F5C08091450281FF61C010924502C11140
:101740001AC080915502882339F061E084EC90E062
:101750000E940611C2E001C0C1E080E00E941F0AA1
:101760008091E20281608093E2028091E3028160D5
:101770008093E30243C0C13029F48091550288234D
:1017800039F01EC0C23069F5809155028130A9F44C
:1017900080915502811102C0C2E001C0C1E080E029
:1017A0000E941F0A8091E50281608093E50280918A
:1017B000E60281608093E60221C0882319F011C0FF
:1017C000813079F480E00E941F0A8091E8028160F4
:1017D0008093E8028091E90281608093E902C3E08E
:1017E0000DC083E68093EE0280E00E941F0A8CED1C
:1017F00095E00E94EA001092EE0290C080914502AE
:1018000082FD04C08091440282FF7FCF1092450286
:10181000C13061F58091EF028F5F8093EF0280917C
:10182000EF028D3014F0C093EF0280E00E941F0A97
:101830008091550281110BC08091E20281608093FA
:10184000E2028091E30281608093E3020AC080910A
:10185000E50281608093E5028091E60281608093D9
:10186000E6026091EF0282E090E04DC0C23061F587
:101870008091E0028F5F8093E0028091E0028032ED
:1018800014F01093E00280E00E941F0A809155023C
:10189000813059F48091E20281608093E20280916C
:1018A000E30281608093E3020AC08091E5028160D7
:1018B0008093E5028091E60281608093E602609168
:1018C000E00283E090E01FC0C330F9F48091DD02B4
:1018D0008F5F8093DD028091DD02602F0E9469138B
:1018E0009093DD0280E00E941F0A8091E8028160EF
:1018F0008093E8028091E90281608093E90260911F
:10190000DD0281E090E00E9421148091440282FF78
:10191000FCCE8CE390E00E94EA00F7CEDF91CF91FD
:101920001F910F91089581E58CBD08958EBD0DB472
:1019300007FEFDCF0895CF93DF9300D0CDB7DEB77C
:10194000F8946A8379830E94960C7981872F0E948C
:10195000960C6A81862F0E94960C409A4098789443
:101960000F900F90DF91CF9108958F929F92AF9239
:10197000BF92CF92DF92EF92FF920F931F93CF937C
:10198000DF93C62FE82FF0E0E859FE4FE49141E0E5
:1019900050E002C0440F551FEA95E2F7BA018827CC
:1019A00077FD8095982F0091580210915902F0917F
:1019B0005A02E0915B0220E030E0D0E0C12CD12C53
:1019C0007601C394AE01022E02C0559547950A9444
:1019D000E2F740FF14C0F901E05AFE4F449146017E
:1019E000570104C0880C991CAA1CBB1C4A95D2F74D
:1019F000682979298A299B298401FA2DEB2D2F5FEB
:101A00003F4F28303105F1F60093580210935902E8
:101A1000F0935A02E0935B02DF91CF911F910F91F7
:101A2000FF90EF90DF90CF90BF90AF909F908F90FE
:101A30000C949B0C1F920F920FB60F9211242F93B0
:101A40003F934F935F936F937F938F939F93AF9346
:101A5000BF93EF93FF937894A89580914D02909156
:101A60004E02019690934E0280934D02819708F4A6
:101A700067C010924E0210924D02809147029091E1
:101A800048020196909348028093470280914F024A
:101A9000893010F010924F0280914F02E82FF0E051
:101AA000EF51FD4F60810E94B50C80914F028F5F16
:101AB00080934F028091ED02882309F441C0809108
:101AC000490290914A02892BD9F580914B0290915D
:101AD0004C02019690934C0280934B0285369105FF
:101AE00078F110924C0210924B028AEF90E09093A2
:101AF000870080938600809186009091870096955C
:101B0000879590938B0080938A00909389008093AF
:101B100088008091ED02807F49F08091ED028F7006
:101B20008093ED02809181008D7F08C08091ED024D
:101B3000806F8093ED0280918100826080938100AC
:101B4000FF91EF91BF91AF919F918F917F916F9195
:101B50005F914F913F912F910F900FBE0F901F906B
:101B600018958091C00080780895FC018281880FCB
:101B70008056982F990F990F980F83818053890F62
:101B80009481990F9056392F330F330F390F2581D8
:101B90002053230F5091000130ED350F9181390F03
:101BA0009081990F9056492F440F440F490F340FDD
:101BB00030935C029091500257FF02C0891B01C014
:101BC000890F8093EA022093F0020895FC0180813E
:101BD000880F8056982F990F990F980F21812053C5
:101BE000290F8281880F8056382F330F330F380F1B
:101BF00093819053930F8481880F8056382F330F31
:101C0000330F380F85818053830F10925302109247
:101C100052022093E0029093EF028093DD02089538
:101C20009091EB029923B1F09091EC02981312C0BD
:101C30008091DE0286130EC041110CC061E080EB82
:101C400090E00E94061181E08093ED0210924A021A
:101C50001092490208958091F0028C3354F08091E3
:101C6000F0028C538093F0028091EA028F5F8093A0
:101C7000EA028091F00287FF0AC08091F002845C42
:101C80008093F0028091EA0281508093EA02809171
:101C9000EA028C33B4F08091EA028C538093EA021A
:101CA00080915C028F5F80935C0260915C0284E0B3
:101CB00090E00E9421146091EA0285E090E00E9489
:101CC00021148091EA0287FF16C08091EA02845CA9
:101CD0008093EA0280915C02815080935C02609163
:101CE0005C0284E090E00E9421146091EA0285E0A9
:101CF00090E00E94211480915C02883184F08091F0
:101D00005C02885180935C028091E0028F5F809337
:101D1000E0026091E00283E090E00E942114809153
:101D20005C0287FF10C080915C02885E80935C0239
:101D30008091E00281508093E0026091E00283E0B4
:101D400090E00E9421148091E00280327CF5809125
:101D5000E0028F3181F48091EF02843039F180917B
:101D6000EF02863019F18091EF028930F9F080910D
:101D7000EF028B30D9F08091E0028E3121F4809116
:101D8000EF02823099F08091E0028D31E9F4809188
:101D9000EF028230C9F48091DD02992787FD90958A
:101DA0008053984F0E94000281110EC081E0809301
:101DB000E0028091EF028F5F8093EF026091EF026B
:101DC00082E090E00E9421148091E0021816DCF17C
:101DD0008091EF02992787FD9095A92FB92FFC01DB
:101DE0003197EC30F10530F5E05CFF4F0C94E013D7
:101DF0008091E002815E16C08091E002825E12C096
:101E00008091DD02992787FD90958053984F0E941D
:101E10000002882321F08091E002835E03C080915C
:101E2000E002845E8093E0028091EF028150809313
:101E3000EF0203C081E08093E0026091EF0282E054
:101E400090E00E9421148091EF028D3074F0809117
:101E5000DD028F5F8093DD0281E08093EF0260916D
:101E6000DD0281E090E00E9421148091EF021816BB
:101E7000B4F08091EF02845F8093EF028091DD02E5
:101E800081508093DD026091EF0282E090E00E9439
:101E900021146091DD0281E090E00C9421140895FA
:101EA0001F920F920FB60F9211242F933F934F93CF
:101EB0005F936F937F938F939F93AF93BF93EF93B2
:101EC000FF9380E880936100109261008091F0029E
:101ED0008F5F8093F0020E942B0E8091540281113B
:101EE00052C08091EE02811120C08091530288235C
:101EF00049F08091F00280FF05C08EEC91E00E94D5
:101F00007C0608C04091F0026091EA0280915C0278
:101F10000E94F2029091EB028091E102992311F06C
:101F2000826001C08D7F8093E1024091F002609158
:101F3000EA0280915C020E94100E80914202882386
:101F400029F08091420281508093420280914302A5
:101F5000882329F08091430281508093430280912D
:101F6000490290914A02009771F0019790934A02BA
:101F7000809349029091E10280FF02C0926001C00B
:101F80009D7F9093E102FF91EF91BF91AF919F915F
:101F90008F917F916F915F914F913F912F910F9012
:101FA0000FBE0F901F901895DF92EF92FF920F9344
:101FB0001F93CF93DF93CDB7DEB760970FB6F8943A
:101FC000DEBF0FBECDBF8091C6008F8790915102BA
:101FD000911105C0843209F0D3C081E018C0EDE54D
:101FE000F2E001900020E9F73197ED55F240E0383A
:101FF000F10508F055C0369769F467ED71E08DE59D
:1020000092E00E940014892B09F04AC082E080937C
:102010005102ADC08A3209F0AAC0923009F040C026
:102020008CEE91E00E9431118DE592E00E94311119
:102030006CE270E08DE592E00E94F513FC013196B0
:1020400026E0DE01189601900D922A95E1F71E8692
:1020500008E010E06CE270E001960E94F513015078
:10206000110901151105B1F7FC01319686E0DE0179
:10207000119601900D928A95E1F71F822D8130E033
:10208000205331094AE0429FC001439F900D112423
:102090002E8130E020533109820F931F0A9754F4A8
:1020A00080E8EDE5F2E0DF011D928A95E9F71092F4
:1020B000510266C010915C020091EA02CE010896BE
:1020C0000E94B50DCE0101960E94E60D0E942B0ED6
:1020D00080915C022091EA02332727FD3095BCE312
:1020E0008B02200D311D1124E12EF12C402F50E0E8
:1020F0008CE3189F400D511D112490915C02D090EB
:10210000EA02D901A41BB50BB7FF16C0890100561E
:102110001A4F0417150780F0FD01E056FA4FF7FF3C
:1021200003C0F195E195F109B195A195B109EA17BF
:10213000FB0714F4985E98014217530708F0B0CFDC
:10214000292F332727FD30952E153F050CF4A8CFF6
:10215000D7FC09C040E06D2D892F988B0E94100E8E
:10216000DA949889F5CF91501BE3D12EE9CF41E065
:1021700050E0BE01615F7F4F8DE592E00E9409143F
:1021800060960FB6F894DEBF0FBECDBFDF91CF9142
:102190001F910F91FF90EF90DF900895882331F009
:1021A00081509EE100009150E9F7F8CF089588230F
:1021B00059F02FEF39E698E1215030409040E1F797
:1021C00000C000008150F3CF08959093C500809324
:1021D000C40088E18093C1008EE08093C200519AD0
:1021E000509808959091C00095FFFCCF8093C60051
:1021F00080E090E008958091C00087FFFCCF80913F
:10220000C60008958091C00080780895EF92FF92F3
:102210001F93CF93DF931F92CDB7DEB77C0110E001
:10222000F701E10FF11D8491882331F069830E9449
:10223000F2101F5F6981F4CF662361F08AE00E948B
:10224000F2108DE00F90DF91CF911F91FF90EF90F2
:102250000C94F2100F90DF91CF911F91FF90EF90AF
:102260000895CF93DF93EC018991882319F00E94A0
:10227000F210FACFDF91CF910895CF93C82F8295B6
:102280008F708A3010F4805D01C0895A0E94F2106C
:102290008C2F8F70282F30E02A30310514F4805DA8
:1022A00001C0895ACF910C94F210CF93C82F892F77
:1022B0000E943D118C2FCF910C943D11CF92DF9253
:1022C000EF92FF926B017C01C7010E945511C6017C
:1022D000FF90EF90DF90CF900C945511AF92BF928A
:1022E000CF92DF92EF92FF920F931F93CF93DF93E2
:1022F0001F92CDB7DEB77C0105E010E020E080E161
:10230000A82E87E2B82E9AE0C92ED12CC701B501BC
:102310000E947713611106C0211104C081E0A81644
:10232000B10439F480E3860F69830E94F21021E042
:1023300069816A9DC0016B9D900D1124E81AF90A0C
:10234000C501B6010E9477135B0101501109011507
:102350001105E1F60F90DF91CF911F910F91FF9042
:10236000EF90DF90CF90BF90AF9008952F923F9263
:102370004F925F926F927F928F929F92AF92BF9295
:10238000CF92DF92EF92FF921F93CF93DF931F9232
:10239000CDB7DEB74B015C012AE0222E312C10E0D4
:1023A000C12C3AECD32E3AE9E32E3BE3F32E4AE07C
:1023B000442E512C612C712CC501B401A70196014A
:1023C0000E949F13211108C0111106C081E0C81698
:1023D000D104E104F10439F480E3820F29830E94DF
:1023E000F21011E02981A22FB0E0A70196010E940E
:1023F0005213861A970AA80AB90AC701B601A3019F
:1024000092010E949F1369017A01E1E02E1A3108BE
:102410002114310489F60F90DF91CF911F91FF9025
:10242000EF90DF90CF90BF90AF909F908F907F9074
:102430006F905F904F903F902F90089515BC569AE3
:102440005E9884B714BE90E00E94551188E10FB6E3
:10245000F89480936000109260000FBE2FE088E136
:1024600090E00FB6F894A895809360000FBE20937B
:102470006000A89581E0809353021092520287E693
:1024800090E00E94E51061E089E391E00E9406116E
:102490008EED91E00E9431118FEE91E00E9431119A
:1024A00080E890E00E946E118CEE91E00E94311164
:1024B00088E480BF8FEC97E00197F1F700C000003F
:1024C00000B605FE0BC080B7806180BF61E08EE280
:1024D00091E00E9406110E94A5015BC00E9492013A
:1024E0005B9861E08BE191E00E94061161E088E079
:1024F00091E00E94061181E0809369008DBB1092EB
:10250000EE0261E08FEF90E00E94061181E58CBD44
:1025100061E084EF90E00E94061189E090E00E9463
:1025200019140E94B00278948DE090E00E94191472
:1025300080930001845F893110F0109200018EE0D9
:1025400090E00E941914809350028D3310F0109285
:1025500050028BE090E00E9419148093550261E0D4
:1025600087EE90E00E9406110E94190261E080EA65
:102570009FE00E946A0261E08CED90E00E940611EB
:102580000E94A50161E081ED90E00E9406110E9489
:10259000630961E08CEC90E00E940611C3E6D8E08C
:1025A00017E006E08BE0F82E95E0E92E23E0D22E2E
:1025B00034E0C32EA89500B605FE03C00E94630157
:1025C000F9CF8091450280FF4FC010924502809163
:1025D000EE0290E08C30910508F05BC0FC01E45BFA
:1025E000FF4F0C94E013C092EE0282E092E00E9452
:1025F0007C060E94AB044FC0D092EE028CE092E0C9
:102600000E947C060E945B031092530244C0E09239
:10261000EE0285E192E00E947C060E947A0B3BC0AC
:10262000F092EE028EE192E00E947C060E94BC05D0
:1026300032C00093EE0287E292E00E947C060E9484
:102640009E0729C01093EE0280E392E00E947C0670
:102650000E947B0820C0D093EE0289E392E00E94A2
:102660007C060E94070917C08091450281FD04C0C5
:102670008091450282FF0FC010924502C093EE0286
:1026800081E00E941F0AA8958CED95E00E94EA0067
:10269000A8951092EE028091C00087FF8BCF0E9418
:1026A000D40F88CF0E94E613A59F900DB49F900D84
:1026B000A49F800D911D11240895991B79E004C0F9
:1026C000991F961708F0961B881F7A95C9F7809571
:1026D000089587FB082E062687FD819567FD619585
:1026E0000E945D130EF4919507FC81950895AA1B35
:1026F000BB1B51E107C0AA1FBB1FA617B70710F0ED
:10270000A61BB70B881F991F5A95A9F7809590951E
:10271000BC01CD01089597FB072E16F4009407D055
:1027200077FD09D00E94771307FC05D03EF4909501
:1027300081959F4F0895709561957F4F0895A1E20F
:102740001A2EAA1BBB1BFD010DC0AA1FBB1FEE1F2B
:10275000FF1FA217B307E407F50720F0A21BB30B76
:10276000E40BF50B661F771F881F991F1A9469F7F2
:1027700060957095809590959B01AC01BD01CF014E
:102780000895052E97FB1EF400940E94D81357FD60
:1027900007D00E949F1307FC03D04EF40C94D8136B
:1027A00050954095309521953F4F4F4F5F4F08957D
:1027B00090958095709561957F4F8F4F9F4F0895AD
:1027C000EE0FFF1F0590F491E02D0994A29FB00138
:1027D000B39FC001A39F700D811D1124911DB29F55
:1027E000700D811D1124911D0895FC0181918617A2
:1027F00021F08823D9F7992708953197CF010895BB
:10280000FB01DC018D91019080190110D9F3990B26
:102810000895FB01DC010D900020E9F7119741506C
:10282000504028F0019000200D92C9F708951C92A5
:102830000895F999FECF92BD81BDF89A992780B588
:102840000895262FF999FECF1FBA92BD81BD20BDF4
:102850000FB6F894FA9AF99A0FBE01960895F89473
:02286000FFCFA8
:10286200FA0A0D54696D657A6F6E65206F6666733C
:10287200657420686F75723A0900736E6F6F7A69BA
:102882006E670062726974652000766F6C206869F9
:10289200676800766F6C20206C6F77007573612D0E
:1028A20031326872006575722D3234687200616C63
:1028B20061726D206F6E0073756E646179006D6F69
:1028C2006E6461790074756573646179007765641B
:1028D2006E736461790074687572736461790066FD
:1028E2007269646179007361747572646179006AF6
:1028F200616E00666562006D61726368006170728C
:10290200696C006D6179006A756E65006A756C7933
:102912000061756773740073657074006F63746F20
:1029220062006E6F76656D00646563656D002020E0
:1029320020202020202000244750524D43000A0D21
:1029420048656C6C6F20576F726C64210A0D000A27
:102952000D4275666665722073697A652069733AFD
:10296200090073657420616C61726D007365742077
:1029720074696D65007365742064617465007365C4
:1029820074207A6F6E6500736574206272697400D8
:1029920073657420766F6C200073657420726567AE
:0229A2006E00C5
:00000001FF
