:100000000C94B3000C94A5090C94D0000C942D060C
:100010000C94D0000C949C050C94D0000C94D0004F
:100020000C94D0000C947F060C94D0000C94D0005B
:100030000C94D0000C94D0000C94D0000C94D00000
:100040000C94F50C0C94D0000C94D0000C94D000BF
:100050000C94D0000C94D0000C94D0000C94E100CF
:100060000C94D0000C94D000150B180B1B0B1E0B1E
:10007000210B240B270B2A0B2D0B300B330B360BCC
:10008000616C61726D206F666600536574206461F7
:100090007900646F6E6500616C61726D20696E69D4
:1000A0007400636C6F636B20696E697400737065B4
:1000B000616B657220696E697400626F6F73742082
:1000C000696E69740076666420696E69740074757F
:1000D000726E696E67206F6E20616C61726D7377EE
:1000E000007475726E696E67206F6E20627574742D
:1000F0006F6E7300636C6F636B20696E69740021AF
:100100000077616B6574696D650057414B455245D9
:10011000534554007A00616C61726D206F6E21004E
:10012000623200623300623100736E6F6F7A650075
:100130000B10120F0D0E111303070809060A050C08
:1001400004FC60DAF266B6BEE0FEE6FA3E1A7ADE3B
:100150008EF62E6078AE1CAA2A3ACEF30AB61E3866
:1001600038B86E76DA0011241FBECFEFD4E0DEBFC0
:10017000CDBF11E0A0E0B1E0E6E1F1E202C0059000
:100180000D92A43FB107D9F712E0A4EFB1E001C08E
:100190001D92A132B107E1F70E94DC0E0C94891088
:1001A0000C94000078941092FA011092F9012091B9
:1001B000F9013091FA0128173907C8F30895A89575
:1001C00008951F920F920FB60F9211242F933F9311
:1001D0004F935F936F937F938F939F93AF93BF934F
:1001E000EF93FF9300B605FE27C0809104028111B2
:1001F00041C05B9A85B1877D85B95E988CB58F7B50
:100200008CBD80910202882361F060911A0285E022
:1002100090E00E947B106091200286E090E00E94B6
:100220007B1061E084E191E00E94C40D15BC109246
:100230000F021092680019C0809104028823D1F047
:1002400080910202882361F060911A0285E090E0BB
:100250000E947B106091200286E090E00E947B105B
:1002600061E08AE091E00E94C40DE0910602F09105
:1002700007020995FF91EF91BF91AF919F918F91E7
:100280007F916F915F914F913F912F910F900FBE92
:100290000F901F90189581E0809304025B9A8CB5B3
:1002A0008F7B8CBD85B1877D85B95E9815BC10921A
:1002B0000F021092680085B1897F85B98BB18F7C60
:1002C0008BB928988AB18F7C8AB920985A9852980D
:1002D000E1E6F0E080E8808388E08083449A83B799
:1002E000876083BF8895E1E6F0E080E88083108234
:1002F000449808958EE284B988E48AB989E187B97F
:1003000084E38BB981E085B995E090936800809390
:100310006B0080E380936D000895CF93DF9384E0BA
:1003200090E00E947310D8E16D2F0E94E90F909326
:100330000C0285E090E00E947310CCE36C2F0E94C9
:10034000E90F90931A0286E090E00E9473106C2FE0
:100350000E94E90F9093200288E090E00E947310C1
:100360006C2F0E94E90F90930E0287E090E00E94AC
:1003700073106D2F0E94E90F90931C0281E090E0B2
:100380000E94731064E60E94E90F90930D0282E0D0
:1003900090E00E9473106DE00E94E90F90931F029D
:1003A00083E090E00E9473108F718093100291E0BF
:1003B00090930202E6EBF0E080818062808385E02A
:1003C0008093B100909370007894DF91CF9108955D
:1003D0009C0183709927892B39F4C90164E670E088
:1003E0000E94F50F892B59F4C90160E971E00E9460
:1003F000F50F21E0892B09F020E0822F089581E09C
:1004000008958AE090E00E94731080930F0285B1F6
:10041000866085B982E38093800080910F028823F3
:1004200029F08091800080688093800088E180932B
:1004300081008AEF90E090938700809386008091FE
:100440008600909187009695879590938900809378
:10045000880090938B0080938A0008950F931F93D8
:10046000CF93DF9300E810E0F8011082C1E8D0E0FC
:100470001882299A2A988AE090E00E94D2002A9A4B
:1004800029988AE090E00E94D20085B1897F85B9E1
:1004900082EBF801808388E18883DF91CF911F91FF
:1004A0000F910895CF93C62F9C0140E050E060E487
:1004B00072E48FE090E00E943F1030938700209319
:1004C00086008091860090918700969587959093FD
:1004D0008B0080938A0090938900809388006C2F12
:1004E000662309F1809181008260809381002FEF63
:1004F00081EE94E0215080409040E1F700C0000080
:10050000809181008D7F8093810085B1897F85B93D
:100510002FEF81EE94E0215080409040E1F700C041
:1005200000006150DDCF85B1897F85B9CF910895F5
:100530008B3580F58F3110F48EE12DC0843210F4AC
:1005400083E229C0893210F488E225C08E3210F48B
:100550008DE221C0833310F482E31DC0883310F490
:1005600087E319C08D3310F48CE315C0823410F486
:1005700081E411C0873410F486E40DC08C3410F48B
:100580008BE409C0813510F480E505C0863510F490
:1005900085E501C08AE587BD83E084BD81E085BD36
:1005A00084B5806884BD80916E00816080936E0008
:1005B00078940895CF93C82F362F842F2AE0622F86
:1005C0000E94E90FE92FF0E0EF5BFE4FE491E0932A
:1005D0001902E82FF0E0EF5BFE4FE491E093180280
:1005E00010921702832F0E94E90FE92FF0E0EF5BD2
:1005F000FE4FE491E0931602E82FF0E0EF5BFE4F30
:10060000E491E09315021092140280910502811189
:1006100022C08C2F90E00B966CE070E00E940910D5
:1006200001966AE070E00E940910FC01EF5BFE4F4A
:10063000E491E0931302FB01EF5BFE4F6491609342
:10064000120280911102CC3010F0816001C08E7FC7
:100650008093110216C08C2F68E10E94E90F892F48
:10066000622F0E94E90FE92FF0E0EF5BFE4FE4916B
:10067000E0931302E82FF0E0EF5BFE4FE491E0938C
:100680001202CF9108958F929F92BF92DF92EF92C4
:10069000FF920F931F93CF93DF93F0900C02E090A3
:1006A0001A02D09020028AE08093F40110E00AE060
:1006B000CCE3D0E048E1842E912C8091F70180FDBD
:1006C000CFC08091F701811104C08091F601882389
:1006D00019F00093F40105C08091F401882309F416
:1006E0004BC08091F70181FF4AC01092F7011111B0
:1006F00017C0F0900C02E0901A02D09020024D2D0D
:100700006E2D8F2D0E94DA028091120281608093FB
:1007100012028091130281608093130211E02FC0B6
:10072000113089F44D2D6E2D8F2D0E94DA028091AB
:10073000150281608093150280911602816080937A
:10074000160212E01CC0123089F44D2D6E2D8F2D33
:100750000E94DA02809118028160809318028091D1
:10076000190281608093190213E009C0F0920C0213
:10077000E0921A02D092200210921E0271C0809163
:10078000F70182FD04C08091F60182FF96CF10929E
:10079000F7011130F9F48F2D90E00196B4010E9419
:1007A0000910B82EF82E4D2D6E2D0E94DA02809180
:1007B0001202816080931202809113028160809303
:1007C0001302B0920C0260910C0284E090E00E944F
:1007D0007B103DC0123001F58E2D90E00196BE01D8
:1007E0000E940910B82EE82E4D2D682F8F2D0E94E3
:1007F000DA028091150281608093150280911602C1
:1008000081608093160260911A0285E090E00E9458
:100810007B10B0921A021BC01330C9F48D2D90E0EA
:100820000196BE010E940910B82ED82E482F6E2DB9
:100830008F2D0E94DA028091180281608093180245
:1008400080911902816080931902B09220028091F8
:10085000F60182FF32CF8BE490E00E94D2002DCFD0
:10086000DF91CF911F910F91FF90EF90DF90BF909C
:100870009F908F900895482F862F10921902109202
:100880001802109217026AE00E94E90FE92FF0E0C7
:10089000EF5BFE4FE491E0931602E82FF0E0EF5B90
:1008A000FE4FE491E093150210921402809105022C
:1008B000242F30E081111FC0809111024C3048F08C
:1008C000816080931102EAE5F1E0E491E09318027F
:1008D00008C0EBE4F1E0E491E09318028E7F80938E
:1008E0001102E7E5F1E0E491E0931902C9010B96EA
:1008F0006CE070E004C0C901479668E170E00E94B6
:10090000091001966AE070E00E940910FC01EF5B9B
:10091000FE4FE491E0931302FB01EF5BFE4F649105
:10092000609312020895CF92DF92EF92FF920F939D
:100930001F93CF93DF93F0901C02E0900E028AE0A9
:100940008093F401C0E0DAE05CE3C52ED12C08E12D
:1009500010E08091F70180FDA7C08091F70181111F
:1009600004C08091F601882319F0D093F4011EC0D1
:100970008091F40181111AC010921E02F0921C02A3
:10098000E0920E0260911C0287E090E00E947B10D2
:1009900060910E0288E090E0DF91CF911F910F915E
:1009A000FF90EF90DF90CF900C947B108091F70137
:1009B00081FF39C01092F701C11110C06E2D8F2D2B
:1009C0000E943B0480911202816080931202809108
:1009D0001302816080931302C1E025C0C13081F40D
:1009E0006E2D8F2D0E943B048091150281608093B3
:1009F000150280911602816080931602C2E013C036
:100A0000F0921C02E0920E0260911C0287E090E0DE
:100A10000E947B1060910E0288E090E00E947B10A3
:100A200010921E0241C08091F70182FD04C08091A6
:100A3000F60182FF8ECF1092F701C130A9F48F2DFD
:100A400090E00196B8010E940910F82E6E2D0E94C8
:100A50003B04809112028160809312028091130204
:100A600081608093130217C0C230A9F48E2D90E0EC
:100A70000196B6010E940910E82E682F8F2D0E9462
:100A80003B048091150281608093150280911602CB
:100A90008160809316028091F60182FF5ACF8BE429
:100AA00090E00E94D20055CFDF91CF911F910F911E
:100AB000FF90EF90DF90CF900895CF93DF93109247
:100AC0001102A2E1B2E0EC01E991CE01EE23C1F006
:100AD0002FE92E0F2A3120F4F0E0E651FF4F07C036
:100AE00020ED2E0F2A3030F4F0E0EF5EFE4FE4915F
:100AF000EC9301C01C921196D2E0AA31BD0719F700
:100B0000DF91CF91089588E592E09093FC01809366
:100B1000FB0161E089E291E00E94C40D80E091E078
:100B20000E945D0589E080931E0288EE93E00E949A
:100B3000D20010921E0208951F920F920FB60F92CC
:100B400011242F933F934F935F936F937F938F93D2
:100B50009F93AF93BF93EF93FF93109268007894A5
:100B60004D9920C08091F80180FD21C08AE090E07D
:100B70000E94D2004D995DC00E942E0280911D02FC
:100B8000811125C08091F80181608093F8018091E6
:100B9000F70181608093F70161E086E291E00E94B5
:100BA000C40D05C08091F8018E7F8093F8014C99A7
:100BB00039C08091F80182FD3CC08AE090E00E943B
:100BC000D2004C9936C082E08093F50105C00E94A6
:100BD00083052FC04C9905C08091F5018111FACF92
:100BE00016C00E942E028091F8018B7F8093F8013D
:100BF00080911D028111EBCF61E083E291E00E94C0
:100C0000C40D8091F70184608093F70112C0809138
:100C1000F80184608093F8018091F60184608093EC
:100C2000F60107C01092F6018091F8018B7F809346
:100C3000F80185E080936800FF91EF91BF91AF913B
:100C40009F918F917F916F915F914F913F912F91E4
:100C50000F900FBE0F901F9018951F920F920FB616
:100C60000F9211242F933F934F935F936F937F9332
:100C70008F939F93AF93BF93EF93FF93109268006E
:100C80007894189923C08091F80181FD24C08AE0EE
:100C900090E00E94D20018991EC00E942E028091FE
:100CA0001D02882319F00E94830515C08091F80168
:100CB00082608093F8018091F70182608093F70150
:100CC00061E080E291E00E94C40D05C08091F801CE
:100CD0008D7F8093F80185E080936800FF91EF910C
:100CE000BF91AF919F918F917F916F915F914F9144
:100CF0003F912F910F900FBE0F901F9018951F924C
:100D00000F920FB60F9211242F933F934F935F933F
:100D10006F937F938F939F93AF93BF93EF93FF93C3
:100D200080E88093610010926100809120028F5FC3
:100D300080932002809120028C3338F010922002A0
:100D400080911A028F5F80931A0280911A028C336D
:100D500098F010921A0280910C028F5F80930C021F
:100D600060910C0284E090E00E947B1060911A0276
:100D700085E090E00E947B1080910C02883168F041
:100D800010920C02809110028F5F8093100260918C
:100D9000100283E090E00E947B108091100280326C
:100DA00068F5809110028F3181F480911F028430A8
:100DB00029F180911F02863009F180911F0289304C
:100DC000E9F080911F028B30C9F0809110028E31C2
:100DD00021F480911F02823089F0809110028D31C0
:100DE000D9F480911F028230B9F480910D0290E015
:100DF0008053984F0E94E80181110EC081E08093DA
:100E0000100280911F028F5F80931F0260911F026A
:100E100082E090E00E947B1080911F028D3070F084
:100E200080910D028F5F80930D0281E080931F02FD
:100E300060910D0281E090E00E947B10809104029D
:100E400081116AC080911E02811120C0809103022D
:100E5000882349F08091200280FF05C089E091E05D
:100E60000E945D0508C04091200260911A028091A5
:100E70000C020E94DA0290911B02809111029923C8
:100E800011F0826001C08D7F8093110280911B025E
:100E90008823E1F090911C0280910C02981316C0F7
:100EA00090910E0280911A02981310C08091200236
:100EB00081110CC061E086E191E00E94C40D81E0E7
:100EC00080931D021092FC011092FB018091F401AD
:100ED000882329F08091F40181508093F40180915E
:100EE000F501882329F08091F50181508093F50167
:100EF0008091FB019091FC01009771F00197909314
:100F0000FC018093FB019091110280FF02C092606E
:100F100001C09D7F90931102FF91EF91BF91AF911E
:100F20009F918F917F916F915F914F913F912F9101
:100F30000F900FBE0F901F9018957F928F929F92E7
:100F4000AF92BF92CF92DF92EF92FF920F931F93D7
:100F5000CF93DF938AE08093F40189E090E00E94D0
:100F60007310C82F20E0DAE01EE10AE565E5F62EF1
:100F700070E5E72EEBE4DE2EF6E4CF2EA1E4BA2EE8
:100F8000BCE3AB2E87E3982E92E3892E3DE2732ECD
:100F90008091F701811104C08091F601882319F036
:100FA000D093F40104C08091F401882331F1809141
:100FB000F70180FD91C08091F70181FF32C010924E
:100FC000F70121111AC082E191E00E945D058C2F8A
:100FD0006D2F0E94E90FE82FF0E0EF5BFE4F849148
:100FE000816080931802E92FF0E0EF5BFE4FE491FF
:100FF000E160E093190221E014C010921E026C2FF0
:1010000089E090E0DF91CF911F910F91FF90EF90D9
:10101000DF90CF90BF90AF909F908F907F900C9477
:101020007B108091F70182FD04C08091F60182FF60
:10103000AFCF1092F701213011F020E0A9CFCB5FA4
:10104000CC3508F0CEE18C2F6D2F0E94E90FE82FF0
:10105000F0E0EF5BFE4F8491816080931802E92FEE
:10106000F0E0EF5BFE4FE491E160E0931902CF31D5
:1010700088F1C43210F483E203C0C93218F488E264
:1010800087BD86CFCE3210F477BC82CFC33310F445
:1010900087BC7ECFC83310F497BC7ACFCD3310F421
:1010A000A7BC76CFC23410F4B7BC72CFC73410F4EB
:1010B000C7BC6ECFCC3410F4D7BC6ACFC13510F4A6
:1010C000E7BC66CFC63510F4F7BC62CFCB3511F064
:1010D00007BD5ECF17BD5CCFDF91CF911F910F9100
:1010E000FF90EF90DF90CF90BF90AF909F908F9048
:1010F0007F9008950F931F93CF93DF938AE080939F
:10110000F4018AE090E00E947310182FC0E00AE01A
:101110008091F701811104C08091F601882319F0B4
:101120000093F40104C08091F401882369F1809157
:10113000F70180FD66C08091F70181FF28C0109201
:10114000F701C11121C0112351F089E191E00E9402
:101150005D058091160281608093160204C082E2D0
:1011600091E00E945D0580911702816080931702D3
:101170008091180281608093180280911902816029
:1011800080931902C1E003C010921E023AC0809100
:10119000F70182FFBDCF1092F701C13011F0C0E01E
:1011A000B7CFD1E01111D0E01D2FDD2351F089E13F
:1011B00091E00E945D058091160281608093160285
:1011C00004C082E291E00E945D0580911702816077
:1011D0008093170280911802816080931802809199
:1011E00019028160809319026D2F8AE090E00E94BD
:1011F0007B100E94010261E080EA9FE00E9452029F
:1012000087CFDF91CF911F910F910895CF93DF93F7
:101210008AE08093F4018BE090E00E947310809349
:101220000502C0E0DAE08091F701811104C08091ED
:10123000F601882319F0D093F40104C08091F401E1
:101240008823C9F08091F70180FD39C08091F701B2
:1012500081FF14C01092F701C1110DC080910502E9
:10126000811103C08BE291E002C084E391E00E940F
:101270005D05C1E003C010921E0221C08091F701FC
:1012800082FFD1CF1092F701C13011F0C0E0CBCF77
:1012900081E090910502911180E080930502811117
:1012A00003C08BE291E002C084E391E00E945D05FF
:1012B000609105028BE090E00E947B10B4CFDF913B
:1012C000CF9108954A9B23C080911B0281113CC09D
:1012D00081E080931B021092FC011092FB018DE3D0
:1012E00091E00E945D0589E080931E0288EE93E004
:1012F0000E94D20060910E0280911C020E943B0469
:1013000088EE93E00E94D20010921E020895809110
:101310001B028823C9F010921B021092FC0110924C
:10132000FB0180911D02882379F061E080E890E064
:101330000E94C40D10921D02809181008D7F8093C8
:10134000810085B1866085B908951F920F920FB60E
:101350000F9211242F933F934F935F936F937F933B
:101360008F939F93AF93BF93CF93EF93FF9389E6B0
:101370000E94B00DC9B178948AE090E00E94D2003A
:1013800089B1C4702C2F30E0847090E028173907A1
:1013900011F40E946209FF91EF91CF91BF91AF913B
:1013A0009F918F917F916F915F914F913F912F917D
:1013B0000F900FBE0F901F90189580910402882304
:1013C000E1F180E8809361001092610061E081E0CA
:1013D00091E00E94C40D109204028FE39CE90197F2
:1013E000F1F700C0000000B605FC27C00E947A019A
:1013F00089E090E00E9473100E94980281E58CBD04
:101400005B9843988AE090E00E94731080930F02EB
:101410000E940102A8950E94620961E080E793E0C2
:101420000E94520261E080EE96E00E94520261E06A
:1014300080EC9DE00E945202A8950895CF93DF931F
:1014400081116FC01092110282E080931402809388
:10145000170280910502811126C080911F022AE0A7
:10146000622F0E94E90FE82FF0E0EF5BFE4FE4915E
:10147000E093120280911F020E94E90FE92FF0E031
:10148000EF5BFE4FE491E0931302809110020E9403
:10149000E90FE82FF0E0EF5BFE4FE491E0931502D7
:1014A0008091100225C0809110022AE0622F0E94D4
:1014B000E90FE82FF0E0EF5BFE4FE491E0931202BA
:1014C000809110020E94E90FE92FF0E0EF5BFE4FE0
:1014D000E491E093130280911F020E94E90FE82F2C
:1014E000F0E0EF5BFE4FE491E093150280911F0264
:1014F0000E94E90FE92FF0E0EF5BFE4FE491E093EB
:10150000160280910D022AE0622F0E94E90FE82F57
:10151000F0E0EF5BFE4FE491E093180280910D0242
:10152000B8C0813009F0BEC0C0911F02D0E0E09188
:101530000D02F0E0E053F84F80911F02833010F469
:101540002C963197209110021092180210921902D5
:1015500030E02F5F3F4F2E0F3F1FCE01880F991FA6
:10156000280F391FCF019695879596958795280F57
:10157000391FCF0160E971E00E94F50F260F371F78
:10158000CF0164E670E00E94F50F261B370B219611
:1015900046E04C9FC0014D9F900D11246AE070E021
:1015A0000E94F50F260F371FC90167E070E00E9407
:1015B000F50F83309105B1F034F48130910561F07D
:1015C000029769F006C08530910591F074F0069796
:1015D00091F086E491E011C08DE491E00EC084E5C5
:1015E00091E00BC08CE591E008C085E691E005C074
:1015F0008EE691E002C085E791E00E945D0588EEED
:1016000093E00E94D20010921502109216021092DE
:10161000170280911F0290E0FC013197EC30F10538
:1016200048F5EC5CFF4F0C945E108EE791E020C013
:1016300082E891E01DC086E891E01AC08CE891E054
:1016400017C082E991E014C086E991E011C08BE9EE
:1016500091E00EC080EA91E00BC086EA91E008C0FC
:101660008BEA91E005C081EB91E002C087EB91E04D
:101670000E945D05809110022AE0622F0E94E90F0E
:10168000E82FF0E0EF5BFE4FE491E09318028091C9
:1016900010020E94E90FE92FF0E0EF5BFE4FE491AA
:1016A000E0931902DF91CF9108950F931F93CF9389
:1016B000DF938AE08093F401C0E0DAE011E004E611
:1016C0008091F701811104C08091F601882319F0FF
:1016D000D093F40105C08091F401882309F466C019
:1016E0008091F70180FDF5C08091F70181FF61C015
:1016F0001092F701C1111AC080910502882339F0B8
:1017000061E08AE890E00E94C40DC2E001C0C1E03F
:1017100080E00E941E0A8091120281608093120272
:101720008091130281608093130243C0C13029F479
:1017300080910502882339F01EC0C23069F580917E
:1017400005028130A9F480910502811102C0C2E036
:1017500001C0C1E080E00E941E0A809115028160F4
:10176000809315028091160281608093160221C039
:10177000882319F011C0813079F480E00E941E0A9C
:101780008091180281608093180280911902816013
:1017900080931902C3E00DC083E680931E0280E0AF
:1017A0000E941E0A8CED95E00E94D20010921E024B
:1017B00090C08091F70182FD04C08091F60182FF04
:1017C0007FCF1092F701C13061F580911F028F5FCA
:1017D00080931F0280911F028D3010F0C0931F0272
:1017E00080E00E941E0A8091050281110BC0809149
:1017F00012028160809312028091130281608093B3
:1018000013020AC0809115028160809315028091B5
:10181000160281608093160260911F0282E090E0C0
:101820004DC0C23061F5809110028F5F809310022D
:1018300080911002803210F01093100280E00E941C
:101840001E0A80910502813059F480911202816054
:1018500080931202809113028160809313020AC068
:10186000809115028160809315028091160281603B
:10187000809316026091100283E090E01FC0C33095
:10188000F9F480910D028F5F80930D0280910D021B
:10189000602F0E94E90F90930D0280E00E941E0AC3
:1018A00080911802816080931802809119028160F2
:1018B0008093190260910D0281E090E00E947B10FC
:1018C0008091F60182FFFCCE8CE390E00E94D20072
:1018D000F7CEDF91CF911F910F91089581E58CBDD7
:1018E00008958EBD0DB407FEFDCF0895CF93DF930D
:1018F00000D0CDB7DEB7F8946A8379830E94710C6B
:101900007981872F0E94710C6A81862F0E94710C49
:10191000409A409878940F900F90DF91CF9108955E
:101920008F929F92AF92BF92CF92DF92EF92FF92EF
:101930000F931F93CF93DF93C62FE82FF0E0E85C5F
:10194000FE4FE49141E050E002C0440F551FEA957C
:10195000E2F7BA01882777FD8095982F0091080259
:1019600010910902F0910A02E0910B0220E030E0B0
:10197000D0E0C12CD12C7601C394AE01022E02C05E
:10198000559547950A94E2F740FF14C0F901E05DD0
:10199000FE4F44914601570104C0880C991CAA1CB3
:1019A000BB1C4A95D2F7682979298A299B29840189
:1019B000FA2DEB2D2F5F3F4F28303105F1F60093C4
:1019C000080210930902F0930A02E0930B02DF91E0
:1019D000CF911F910F91FF90EF90DF90CF90BF902C
:1019E000AF909F908F900C94760C1F920F920FB631
:1019F0000F9211242F933F934F935F936F937F9395
:101A00008F939F93AF93BF93EF93FF937894A89591
:101A10008091FF01909100020196909300028093C3
:101A2000FF01819708F467C0109200021092FF0135
:101A30008091F9019091FA0101969093FA018093B7
:101A4000F90180910102893010F010920102809119
:101A50000102E82FF0E0EF5EFD4F60810E94900CE4
:101A6000809101028F5F8093010280911D02882383
:101A700009F441C08091FB019091FC01892BD9F5BB
:101A80008091FD019091FE0101969093FE0180935B
:101A9000FD018536910578F11092FE011092FD014D
:101AA0008AEF90E090938700809386008091860073
:101AB000909187009695879590938B0080938A00EC
:101AC000909389008093880080911D02807F49F067
:101AD00080911D028F7080931D02809181008D7F07
:101AE00008C080911D02806F80931D02809181004B
:101AF000826080938100FF91EF91BF91AF919F91A0
:101B00008F917F916F915F914F913F912F910F90A6
:101B10000FBE0F901F901895882331F081509EE1E1
:101B200000009150E9F7F8CF0895882359F02FEF7E
:101B300039E698E1215030409040E1F700C00000C4
:101B40008150F3CF08959093C5008093C40088E13D
:101B50008093C1008EE08093C200519A50980895FE
:101B60009091C00095FFFCCF8093C60080E090E08C
:101B700008958091C00087FFFCCF8091C600089532
:101B80008091C00080780895EF92FF921F93CF93C9
:101B9000DF931F92CDB7DEB77C0110E0F701E10FB4
:101BA000F11D8491882331F069830E94B00D1F5F7D
:101BB0006981F4CF662361F08AE00E94B00D8DE068
:101BC0000F90DF91CF911F91FF90EF900C94B00D8B
:101BD0000F90DF91CF911F91FF90EF900895CF93D9
:101BE000DF93EC018991882319F00E94B00DFACFA0
:101BF000DF91CF910895CF93C82F82958F708A304F
:101C000010F4805D01C0895A0E94B00D8C2F8F7036
:101C1000282F30E02A30310514F4805D01C0895A44
:101C2000CF910C94B00DCF93C82F892F0E94FB0D3C
:101C30008C2FCF910C94FB0DCF92DF92EF92FF92FD
:101C40006B017C01C7010E94130EC601FF90EF904B
:101C5000DF90CF900C94130EAF92BF92CF92DF9291
:101C6000EF92FF920F931F93CF93DF931F92CDB705
:101C7000DEB77C0105E010E020E080E1A82E87E2DD
:101C8000B82E9AE0C92ED12CC701B5010E94F50FDC
:101C9000611106C0211104C081E0A816B10439F415
:101CA00080E3860F69830E94B00D21E069816A9DFF
:101CB000C0016B9D900D1124E81AF90AC501B60107
:101CC0000E94F50F5B010150110901151105E1F6A4
:101CD0000F90DF91CF911F910F91FF90EF90DF90C8
:101CE000CF90BF90AF9008952F923F924F925F9206
:101CF0006F927F928F929F92AF92BF92CF92DF921C
:101D0000EF92FF921F93CF93DF931F92CDB7DEB771
:101D10004B015C012AE0222E312C10E0C12C3AEC60
:101D2000D32E3AE9E32E3BE3F32E4AE0442E512C26
:101D3000612C712CC501B401A70196010E941D10F0
:101D4000211108C0111106C081E0C816D104E104B8
:101D5000F10439F480E3820F29830E94B00D11E071
:101D60002981A22FB0E0A70196010E94DE0F861AFA
:101D7000970AA80AB90AC701B601A30192010E94F5
:101D80001D1069017A01E1E02E1A31082114310495
:101D900089F60F90DF91CF911F91FF90EF90DF9028
:101DA000CF90BF90AF909F908F907F906F905F90FB
:101DB0004F903F902F90089515BC569A5E9884B727
:101DC00014BE90E00E94130E88E10FB6F894809341
:101DD0006000109260000FBE2FE088E190E00FB627
:101DE000F894A895809360000FBE20936000A8959A
:101DF00081E080930302109202028AE190E00E9447
:101E0000A30D61E08FEF90E00E94C40D88E480BFD5
:101E10008FEC97E00197F1F700C0000000B605FED7
:101E20000BC080B7806180BF61E084EF90E00E94CA
:101E3000C40D0E948D0146C00E947A015B9861E04A
:101E400081EE90E00E94C40D61E08EEC90E00E9473
:101E5000C40D81E0809369008DBB10921E0261E089
:101E600085EC90E00E94C40D81E58CBD61E08AEBB9
:101E700090E00E94C40D89E090E00E9473100E94DF
:101E8000980278948BE090E00E9473108093050292
:101E900061E08DEA90E00E94C40D0E94010261E0C1
:101EA00080EA9FE00E94520261E082EA90E00E9494
:101EB000C40D0E948D0161E087E990E00E94C40D8D
:101EC0000E94620961E082E990E00E94C40DC3E6CD
:101ED000D3E017E006E068E0F62E74E0E72EE5E0D8
:101EE000DE2EA89500B605FE03C00E944B01F9CF77
:101EF0008091F70180FF4AC01092F70180911E0285
:101F0000843039F170F48823D9F0833009F053C05C
:101F1000D0921E0280ED91E00E945D050E94550B5B
:101F2000E0CF863051F100F1873009F044C0F092E3
:101F30001E028BEE91E00E945D050E940609D1CF42
:101F4000E0921E028DEB91E00E945D050E949304D9
:101F5000C8CFD0931E0287EC91E00E945D050E94DD
:101F6000430310920302BDCF00931E0289ED91E05E
:101F70000E945D050E949D07B4CF10931E0282EE61
:101F800091E00E945D050E947A08ABCF8091F70135
:101F900081FD04C08091F70182FFA3CF1092F70169
:101FA000C0931E0281E00E941E0AA8958CED95E068
:101FB0000E94D200A89510921E0293CF0E94641036
:101FC000A59F900DB49F900DA49F800D911D11248D
:101FD0000895991B79E004C0991F961708F0961B85
:101FE000881F7A95C9F780950895AA1BBB1B51E1FC
:101FF00007C0AA1FBB1FA617B70710F0A61BB70B79
:10200000881F991F5A95A9F780959095BC01CD011D
:10201000089597FB072E16F4009407D077FD09D09A
:102020000E94F50F07FC05D03EF4909581959F4FD7
:102030000895709561957F4F0895A1E21A2EAA1B0D
:10204000BB1BFD010DC0AA1FBB1FEE1FFF1FA21768
:10205000B307E407F50720F0A21BB30BE40BF50B65
:10206000661F771F881F991F1A9469F760957095EE
:10207000809590959B01AC01BD01CF010895052E7F
:1020800097FB1EF400940E94561057FD07D00E9443
:102090001D1007FC03D04EF40C945610509540953B
:1020A000309521953F4F4F4F5F4F08959095809504
:1020B000709561957F4F8F4F9F4F0895EE0FFF1FD3
:1020C0000590F491E02D0994A29FB001B39FC00147
:1020D000A39F700D811D1124911DB29F700D811D54
:1020E0001124911D0895F999FECF92BD81BDF89AF2
:1020F000992780B50895262FF999FECF1FBA92BD72
:1021000081BD20BD0FB6F894FA9AF99A0FBE0196D8
:062110000895F894FFCFD2
:10211600736E6F6F7A696E67002020202020202062
:10212600200062726974652000766F6C20686967AA
:102136006800766F6C20206C6F77007573612D31A7
:10214600326872006575722D3234687200616C6196
:10215600726D206F6E0073756E646179006D6F6EBF
:102166006461790074756573646179007765646E7E
:10217600736461790074687572736461790066725C
:1021860069646179007361747572646179006A616A
:102196006E00666562006D617263680061707269E7
:1021A6006C006D6179006A756E65006A756C790000
:1021B60061756773740073657074006F63746F6222
:1021C600006E6F76656D00646563656D007365749A
:1021D60020616C61726D007365742074696D6500B1
:1021E6007365742064617465007365742062726936
:1021F600740073657420766F6C20007365742072AA
:0422060065676E009A
:00000001FF
